:020000040000FA
:100000000C9434000C9449000C9449000C94490061
:100010000C9449000C9449000C9449000C9449003C
:100020000C9449000C9449000C9449000C9449002C
:100030000C9449000C9449000C9449000C9449001C
:100040000C9449000C9449000C9449000C9449000C
:100050000C9449000C9449000C9449000C944900FC
:100060000C9449000C94490011241FBECFEFD8E036
:10007000DEBFCDBF11E0A0E0B1E0E4E1F3E002C0FB
:1000800005900D92A033B107D9F70E9489000C9416
:1000900088010C940000611134C028989BB19F70B6
:1000A000282F207F922B9BB945E04A95F1F700005D
:1000B000299A95E09A95F1F70000299840EF4A9522
:1000C000F1F79BB19F7040E1849F90011124922B26
:1000D0009BB995E09A95F1F70000299A45E04A9579
:1000E000F1F70000299890EF9A95F1F7611108C097
:1000F000843030F48FE39FE10197F1F700C00000F6
:100100000895289ACBCF60E00C944B0061E00C94EA
:100110004B008FEF8AB984B915B817B888B92A9AF5
:10012000289829982FEF89EF90E021508040904047
:10013000E1F700C000008BB18F7080638BB925E0C0
:100140002A95F1F70000299A85E08A95F1F70000D9
:10015000299890EF9A95F1F78FE19EE40197F1F7D6
:1001600000C0000095E09A95F1F70000299A25E07B
:100170002A95F1F70000299880EF8A95F1F78FE131
:1001800093E00197F1F700C0000095E09A95F1F730
:100190000000299A25E02A95F1F70000299880EFC0
:1001A0008A95F1F78BB18F7080628BB995E09A9543
:1001B000F1F70000299A25E02A95F1F70000299827
:1001C00080EF8A95F1F760E088E20E944B0060E0E2
:1001D00088E00E944B0060E081E00E944B0060E0FC
:1001E0008CE00E944B0060E080E80E944B0080E4BD
:1001F0000E948300C8E0D1E089910E94860091E0CE
:10020000C031D907C9F788E40E948300C0E0D1E07B
:1002100089910E94860021E0C830D207C9F787E89B
:100220000E94830080E00E94860086E80E9483008E
:100230008DE30E94860085E80E9483008DE20E9483
:10024000860088EC0E94830089E00E94860089EC89
:100250000E9483008DE30E9486008AEC0E94830046
:100260008DE20E9486008FEF91EE24E08150904055
:100270002040E1F700C0000060E081E00E944B00F8
:10028000D0E0C0E0309935C0309BFECF8FEF99EFC2
:1002900020E0815090402040E1F700C000008BE852
:1002A0000E94830080E00E94860082E80E94830012
:1002B0008DE30E94860087EC0E9483008DE20E94FD
:1002C00086008FE80E94830089E00E94860084EC0B
:1002D0000E9483008DE30E9486008BEC0E948300C5
:1002E0008DE20E9486002196C032D10514F0D0E044
:1002F000C0E0FE01E05FFE4F80810E94830060E06D
:100300008FE00E944B003199BDCF3199FECFBACF1B
:10031000F894FFCF00010F1F0F01000000101E1FF7
:100320001E100000808182838485868788898A8B5D
:100330008C8D8E8FC0C1C2C3C4C5C6C7C8C9CACB45
:04034000CCCDCECF83
:107E0000112484B714BE81FFF0D085E080938100F7
:107E100082E08093C00088E18093C10086E0809377
:107E2000C20080E18093C4008EE0C9D0259A86E02C
:107E300020E33CEF91E0309385002093840096BBD3
:107E4000B09BFECF1D9AA8958150A9F7CC24DD24C4
:107E500088248394B5E0AB2EA1E19A2EF3E0BF2EE7
:107E6000A2D0813461F49FD0082FAFD0023811F036
:107E7000013811F484E001C083E08DD089C08234E0
:107E800011F484E103C0853419F485E0A6D080C0E4
:107E9000853579F488D0E82EFF2485D0082F10E0AE
:107EA000102F00270E291F29000F111F8ED06801E7
:107EB0006FC0863521F484E090D080E0DECF843638
:107EC00009F040C070D06FD0082F6DD080E0C81688
:107ED00080E7D80618F4F601B7BEE895C0E0D1E017
:107EE00062D089930C17E1F7F0E0CF16F0E7DF06D8
:107EF00018F0F601B7BEE89568D007B600FCFDCFD4
:107F0000A601A0E0B1E02C9130E011968C91119780
:107F100090E0982F8827822B932B1296FA010C0160
:107F200087BEE89511244E5F5F4FF1E0A038BF0790
:107F300051F7F601A7BEE89507B600FCFDCF97BE46
:107F4000E89526C08437B1F42ED02DD0F82E2BD052
:107F50003CD0F601EF2C8F010F5F1F4F84911BD097
:107F6000EA94F801C1F70894C11CD11CFA94CF0C13
:107F7000D11C0EC0853739F428D08EE10CD085E9AC
:107F80000AD08FE07ACF813511F488E018D01DD067
:107F900080E101D065CF982F8091C00085FFFCCF94
:107FA0009093C60008958091C00087FFFCCF809118
:107FB000C00084FD01C0A8958091C6000895E0E648
:107FC000F0E098E1908380830895EDDF803219F02E
:107FD00088E0F5DFFFCF84E1DECF1F93182FE3DFCA
:107FE0001150E9F7F2DF1F91089580E0E8DFEE27F6
:047FF000FF270994CA
:027FFE00040479
:00000001FF
