:100000000C9434000C9449000C9449000C94490061
:100010000C9449000C9449000C9449000C9449003C
:100020000C9449000C9449000C9449000C9449002C
:100030000C9449000C9449000C9449000C9449001C
:100040000C9449000C9449000C9449000C9449000C
:100050000C9449000C9449000C9449000C944900FC
:100060000C9449000C94490011241FBECFEFD8E036
:10007000DEBFCDBF11E0A0E0B1E0E8E5F2E002C0F4
:1000800005900D92A830B107D9F70E9484000C9416
:100090002A010C940000611102C0289801C0289A1E
:1000A0009BB19F70282F207F922B9BB945E04A95EA
:1000B000F1F70000299A95E09A95F1F70000299848
:1000C00040EF4A95F1F72BB1922F9F7040E1849F4A
:1000D00090011124292B2BB995E09A95F1F7000096
:1000E000299A45E04A95F1F70000299890EF9A95F2
:1000F000F1F7611108C0843030F48FE39FE101977C
:10010000F1F700C000000895CF93DF938FEF8AB915
:1001100084B915B82A9A289829982FEF89EF90E08A
:10012000215080409040E1F700C000008BB18F70FB
:1001300080638BB925E02A95F1F70000299A85E0C4
:100140008A95F1F70000299890EF9A95F1F78FE1E1
:100150009EE40197F1F700C0000095E09A95F1F751
:100160000000299A25E02A95F1F70000299880EFF0
:100170008A95F1F78FE193E00197F1F700C0000055
:1001800095E09A95F1F70000299A25E02A95F1F774
:100190000000299880EF8A95F1F78BB18F7080620B
:1001A0008BB995E09A95F1F70000299A25E02A95F8
:1001B000F1F70000299880EF8A95F1F760E088E276
:1001C0000E944B0060E088E00E944B0060E081E00C
:1001D0000E944B0060E08CE00E944B0060E080E8F1
:1001E0000E944B0060E080E40E944B00C0E0D1E040
:1001F00061E089910E944B0091E0C830D907C1F7B6
:10020000C0EC60E08C2F0E944B0061E08FEF0E94F9
:100210004B00CF5FC13DA9F7C0E0D0E0CE0195957E
:10022000879560E080580E944B0061E08EE20E945A
:100230004B002196C131D10589F760E080E80E942A
:100240004B0061E080E00E944B0080E090E0DF9195
:08025000CF910895F894FFCF4F
:08025800040E151F0E1F0A0021
:107E0000112484B714BE81FFF0D085E080938100F7
:107E100082E08093C00088E18093C10086E0809377
:107E2000C20080E18093C4008EE0C9D0259A86E02C
:107E300020E33CEF91E0309385002093840096BBD3
:107E4000B09BFECF1D9AA8958150A9F7CC24DD24C4
:107E500088248394B5E0AB2EA1E19A2EF3E0BF2EE7
:107E6000A2D0813461F49FD0082FAFD0023811F036
:107E7000013811F484E001C083E08DD089C08234E0
:107E800011F484E103C0853419F485E0A6D080C0E4
:107E9000853579F488D0E82EFF2485D0082F10E0AE
:107EA000102F00270E291F29000F111F8ED06801E7
:107EB0006FC0863521F484E090D080E0DECF843638
:107EC00009F040C070D06FD0082F6DD080E0C81688
:107ED00080E7D80618F4F601B7BEE895C0E0D1E017
:107EE00062D089930C17E1F7F0E0CF16F0E7DF06D8
:107EF00018F0F601B7BEE89568D007B600FCFDCFD4
:107F0000A601A0E0B1E02C9130E011968C91119780
:107F100090E0982F8827822B932B1296FA010C0160
:107F200087BEE89511244E5F5F4FF1E0A038BF0790
:107F300051F7F601A7BEE89507B600FCFDCF97BE46
:107F4000E89526C08437B1F42ED02DD0F82E2BD052
:107F50003CD0F601EF2C8F010F5F1F4F84911BD097
:107F6000EA94F801C1F70894C11CD11CFA94CF0C13
:107F7000D11C0EC0853739F428D08EE10CD085E9AC
:107F80000AD08FE07ACF813511F488E018D01DD067
:107F900080E101D065CF982F8091C00085FFFCCF94
:107FA0009093C60008958091C00087FFFCCF809118
:107FB000C00084FD01C0A8958091C6000895E0E648
:107FC000F0E098E1908380830895EDDF803219F02E
:107FD00088E0F5DFFFCF84E1DECF1F93182FE3DFCA
:107FE0001150E9F7F2DF1F91089580E0E8DFEE27F6
:047FF000FF270994CA
:027FFE00040479
:0400000300007E007B
:00000001FF
