:100000000C9434000C9449000C9449000C94490061
:100010000C9449000C9449000C9449000C9449003C
:100020000C9449000C9449000C9449000C9449002C
:100030000C9449000C9449000C9449000C9449001C
:100040000C9449000C9449000C9449000C9449000C
:100050000C9449000C9449000C9449000C944900FC
:100060000C9449000C94490011241FBECFEFD8E036
:10007000DEBFCDBF11E0A0E0B1E0E8E5F2E002C0F4
:1000800005900D92A830B107D9F70E9484000C9416
:100090002A010C940000611102C0289801C0289A1E
:1000A0009BB19F70282F207F922B9BB945E04A95EA
:1000B000F1F70000299A95E09A95F1F70000299848
:1000C00040EF4A95F1F72BB1922F9F7040E1849F4A
:1000D00090011124292B2BB995E09A95F1F7000096
:1000E000299A45E04A95F1F70000299890EF9A95F2
:1000F000F1F7611108C0843030F48FE39FE101977C
:10010000F1F700C000000895CF93DF938FEF8AB915
:1001100084B915B82A9A289829982FEF89EF90E08A
:10012000215080409040E1F700C000008BB18F70FB
:1001300080638BB925E02A95F1F70000299A85E0C4
:100140008A95F1F70000299890EF9A95F1F78FE1E1
:100150009EE40197F1F700C0000095E09A95F1F751
:100160000000299A25E02A95F1F70000299880EFF0
:100170008A95F1F78FE193E00197F1F700C0000055
:1001800095E09A95F1F70000299A25E02A95F1F774
:100190000000299880EF8A95F1F78BB18F7080620B
:1001A0008BB995E09A95F1F70000299A25E02A95F8
:1001B000F1F70000299880EF8A95F1F760E088E276
:1001C0000E944B0060E088E00E944B0060E081E00C
:1001D0000E944B0060E08CE00E944B0060E080E8F1
:1001E0000E944B0060E080E40E944B00C0E0D1E040
:1001F00061E089910E944B0091E0C830D907C1F7B6
:10020000C0EC60E08C2F0E944B0061E08FEF0E94F9
:100210004B00CF5FC13DA9F7C0E0D0E0CE0195957E
:10022000879560E080580E944B0061E08EE20E945A
:100230004B002196C131D10589F760E080E80E942A
:100240004B0061E080E00E944B0080E090E0DF9195
:08025000CF910895F894FFCF4F
:08025800040E151F0E1F0A0021
:00000001FF
